:100000000C9428010C9459010C9459010C94590139
:100010000C9459010C9459010C9459010C945901F8
:100020000C9459010C9459010C9459010C945901E8
:100030000C9459010C9459010C9459010C945901D8
:100040000C9459010C9459010C9459010C945901C8
:100050000C9459010C9459010C9459010C94980377
:100060000C9459010C940C040C94E2030C94590167
:100070000C9459010C9459010C9459010C94590198
:100080000C9459010C9459010C9459010C94590188
:100090000C9459010C9459010C9459010C94590178
:1000A0000C9459010C9459010C9459010C94590168
:1000B0000C9459010C9459010C9459010C94590158
:1000C0000C9459010C9459010C9459010C94590148
:1000D0000C9459010C9459010C9459010C94590138
:1000E0000C9459010C94DA010C94EE010C94640206
:1000F0000C94FC010C94C5010C9400020C94C901F1
:100100000C94D6010C9456020C94E9020C94F20162
:100110000C9406020C9442040C94AF010C94AA01B6
:100120000C94E8010C94CD010C949C020C943302C5
:100130000C9442020C94E0010C94F6010C94C10161
:100140000C94E4010C94D00100000A0B02090C0D80
:100150000E0807030401000000000000000000007A
:10016000000000000000000000000000000000008F
:10017000000000001211100000000000000000004C
:10018000000000000000000000000000000000006F
:100190002200250028002B002E003100340002012F
:1001A0000000050108010B010000210024002700C8
:1001B0002A002D0030003300010100000401070176
:1001C0000A010505050507050808080802020202DC
:1001D0000A0A0808040404040101010101010101E3
:1001E0000303030303030303040707070C0C0C0CAE
:1001F0000C0C0C0C02020202060606060606060697
:100200000B0B0B0B0B0B0B0B010210202008081023
:100210002040102040800201020108040201010276
:10022000040810204080804020100804020180044F
:1002300002018040201008040201080402010102AA
:10024000040810204080010204081020408042046D
:1002500011241FBECFEFD1E2DEBFCDBF00E00CBF47
:1002600012E0A0E0B2E0E8E9F0E100E00BBF02C07C
:1002700007900D92A831B107D9F723E0A8E1B2E0C9
:1002800001C01D92AA39B207E1F711E0C8E2D1E03E
:1002900000E006C021970109802FFE010E942E0870
:1002A000C732D10780E00807A9F70E940D050C941A
:1002B0004A080C94000090E0FC01E85FFD4F249197
:1002C0008E539E4FFC018491882399F090E0880F13
:1002D000991FFC01E855FE4FA591B491FC01E2572E
:1002E000FE4F859194918FB7F894EC91E22BEC93AB
:1002F0008FBF0895282F30E0F901E85BFE4F9491FD
:10030000F901E85FFD4F44912E533E4FF9012491CE
:10031000222309F435C0992311F191509231F8F458
:10032000E92FF0E08827E856FE4F8F4F0C942E08F7
:10033000C901CD01AA01C101C501AF01D001D6019A
:10034000DA01E001E401E801EE01F201AF01F6019A
:10035000FC010002809180008F7780938000E22F63
:10036000F0E0EE0FFF1FE257FE4FA591B4918FB75B
:10037000F894EC91611148C040954E234C938FBF87
:100380000895809180008F7DE8CF80918000877FE5
:10039000E4CF84B58F7784BDE2CF84B58F7DFBCF6A
:1003A0008091B0008F778093B000D9CF8091B0005A
:1003B0008F7DF9CF809190008F7780939000CFCF81
:1003C000809190008F7DF9CF80919000877FF5CF4D
:1003D0008091A0008F778093A000C1CF8091A00072
:1003E0008F7DF9CF8091A000877FF5CF809120018C
:1003F0008F7780932001B3CF809120018F7DF9CF3B
:1004000080912001877FF5CF4E2BB8CFAF92BF925E
:10041000CF92DF92EF92FF920F931F93CF93DF93D0
:100420006C017B018B01040F151FEB015E01AE18FF
:10043000BF08C017D10759F06991D601ED91FC9121
:100440000190F081E02DC6011995892B79F7C5013E
:10045000DF91CF911F910F91FF90EF90DF90CF90A0
:10046000BF90AF900895FC01538D448D252F30E04F
:10047000842F90E0821B930B541710F0CF960895B1
:1004800001970895FC01918D828D981761F0A28DDE
:10049000AE0FBF2FB11D5D968C91928D9F5F9F73A4
:1004A000928F90E008958FEF9FEF0895FC01918D5A
:1004B000828D981731F0828DE80FF11D858D90E0C7
:1004C00008958FEF9FEF0895FC01918D228D892F64
:1004D00090E0805C9F4F821B91098F73992708954C
:1004E00085EA92E00E94640221E0892B09F420E071
:1004F000822F0895FC01A48DA80FB92FB11DA35A16
:10050000BF4F2C91848D90E001968F739927848F33
:10051000A689B7892C93A089B1898C918370806456
:100520008C93938D848D981306C00288F389E02DF7
:1005300080818F7D80830895EF92FF920F931F93A8
:10054000CF93DF93EC0181E0888F9B8D8C8D981386
:100550001AC0E889F989808185FF15C09FB7F89492
:10056000EE89FF896083E889F989808183708064DE
:1005700080839FBF81E090E0DF91CF911F910F9129
:10058000FF90EF900895F62E0B8D10E00F5F1F4F38
:100590000F731127E02E8C8D8E110CC00FB607FC47
:1005A000FACFE889F989808185FFF5CFCE010E94D5
:1005B0007A02F1CFEB8DEC0FFD2FF11DE35AFF4FC7
:1005C000F0829FB7F8940B8FEA89FB898081806263
:1005D000CFCFCF93DF93EC01888D8823B9F0AA8920
:1005E000BB89E889F9898C9185FD03C0808186FDEE
:1005F0000DC00FB607FCF7CF8C9185FFF2CF80813D
:1006000085FFEDCFCE010E947A02E9CFDF91CF9135
:10061000089580E090E0892B29F00E9470028111FA
:100620000E94000080E090E0892B49F080E090E09B
:10063000892B29F00E94000081110E94000080E0B7
:1006400090E0892B49F080E090E0892B29F00E940E
:10065000000081110E94000080E090E0892B49F0A9
:1006600080E090E0892B29F00E94000081110C9419
:1006700000000895CF92DF92EF92FF920F931F93A5
:10068000CF93DF931F921F92CDB7DEB769834A8362
:10069000880F991F0091980310919903000F111F63
:1006A000E2E4F3E09F01225433402017310714F4B1
:1006B0001192F8CF2981FC01EE5BFC4F21838A81E6
:1006C000808360E0809196030E947A0110161106E3
:1006D00004F501501109F801EE5BFC4FE080D09069
:1006E0009403C090920388E0F82E6E2D661F662753
:1006F000661F8C2D0E947A01EE0C61E08D2D0E9408
:100700007A0160E08D2D0E947A01FA94F110EDCF0C
:10071000DDCF61E0809196030F900F90DF91CF9134
:100720001F910F91FF90EF90DF90CF900C947A0182
:100730001F920F920FB60F9211242F933F938F9316
:100740009F93AF93BF938091A1029091A202A09139
:10075000A302B091A4023091A00223E0230F2D3711
:1007600058F50196A11DB11D2093A0028093A1020E
:100770009093A202A093A302B093A40280919C0242
:1007800090919D02A0919E02B0919F020196A11DA1
:10079000B11D80939C0290939D02A0939E02B09302
:1007A0009F02BF91AF919F918F913F912F910F9099
:1007B0000FBE0F901F90189526E8230F0296A11DDB
:1007C000B11DD2CF1F920F920FB60F9211240BB60C
:1007D0000F922F933F934F935F936F937F938F93DA
:1007E0009F93AF93BF93EF93FF9385EA92E00E94AC
:1007F0007A02FF91EF91BF91AF919F918F917F917D
:100800006F915F914F913F912F910F900BBE0F9081
:100810000FBE0F901F9018951F920F920FB60F9258
:1008200011240BB60F922F938F939F93EF93FF9307
:10083000E091B502F091B6028081E091BB02F091A7
:10084000BC0282FD1DC090818091BE028F5F8F73BC
:100850002091BF02821741F0E091BE02F0E0EB551B
:10086000FD4F958F8093BE02FF91EF919F918F91E5
:100870002F910F900BBE0F900FBE0F901F901895E9
:100880008081F2CFEF92FF921F93CF93DF9310926C
:10089000A8021092A70288EE93E0A0E0B0E0809357
:1008A000A9029093AA02A093AB02B093AC028AE093
:1008B00092E09093A6028093A50285EC90E090933D
:1008C000B2028093B10284EC90E09093B4028093E2
:1008D000B30280EC90E09093B6028093B50281EC75
:1008E00090E09093B8028093B70282EC90E09093EE
:1008F000BA028093B90286EC90E09093BC02809398
:10090000BB021092BE021092BF021092C00210925F
:10091000C102C7E0D0E0D0939303C093920386E076
:1009200090E0909395038093940385E090E09093FA
:1009300097038093960381E090E0909399038093CE
:10094000980387E00E945B01809194030E945B0101
:10095000809196030E945B0161E0809196030E9462
:100960007A01D0939303C0939203E2E5F3E01192EE
:1009700023E0E239F207D9F7D0E0C0E08091980394
:1009800090919903C817D9070CF041C040E06FE07F
:10099000CE010E943A038091980390919903C81761
:1009A000D9072CF447E06BE0CE010E943A0340E007
:1009B00069E0CE010E943A038091980390919903D7
:1009C000C817D907B4F4CE0123E0880F991F2A95E0
:1009D000E1F7FC01EE5AFC4F7F0111E0F7011192A3
:1009E0007F0140E0612FCE010E943A031F5F193062
:1009F000A9F78091980390919903C817D9072CF40F
:100A000040E06CE0CE010E943A032196B7CFDF911F
:100A1000CF911F91FF90EF900895789484B58260F4
:100A200084BD84B5816084BD85B5826085BD85B592
:100A3000816085BD80916E00816080936E00109210
:100A4000810080918100826080938100809181008B
:100A5000816080938100809180008160809380001C
:100A60008091B10084608093B1008091B00081607A
:100A70008093B0008091910082608093910080917A
:100A800091008160809391008091900081608093BB
:100A900090008091A10082608093A1008091A100CC
:100AA00081608093A1008091A00081608093A0006C
:100AB00080912101826080932101809121018160D8
:100AC0008093210180912001816080932001809199
:100AD0007A00846080937A0080917A0082608093AB
:100AE0007A0080917A00816080937A0080917A0008
:100AF000806880937A001092C100E091B502F09175
:100B0000B60282E08083E091B102F091B2021082DD
:100B1000E091B302F091B4028FEC80831092BD0299
:100B2000E091B902F091BA0286E08083E091B702C9
:100B3000F091B802808180618083E091B702F091EA
:100B4000B802808188608083E091B702F091B8029A
:100B5000808180688083E091B702F091B802808143
:100B60008F7D808380917B00877F80937B0080E4F2
:100B700080937C0080917A00806480937A008091D9
:100B80007A0086FDFCCF6091780070917900072E85
:100B9000000C880B990B611571058105910511F009
:100BA0000E94AE0780919803909199031816190638
:100BB00034F441E06CE090E080E00E943A038091E0
:100BC0009803909199031816190634F448E06AE0E6
:100BD00090E080E00E943A03CEE08C2F0E945B01FF
:100BE000CF5FC631D1F78C2F0E945B01CF5FCE3132
:100BF000D1F7CEE061E08C2F0E947A01CF5FC63141
:100C0000C9F760E08C2F0E947A01CF5FCE31C9F71F
:100C100040E1242E312C412C512C54E0852E912C76
:100C2000A12CB12CE8E8F2E08191813009F44AC0AE
:100C300082E0E839F807C1F7C0900002D0900102C5
:100C4000F12CE12C11E003C0EFEFEE1AFE0AEC14D8
:100C5000FD043CF50E945F07A20191010E94B707C5
:100C6000EB01C85EDD4FFE01E059FF4F808181112D
:100C7000F1CF10830E945F07A50194010E94B7077E
:100C80006F5F7F4F8F4F9F4F30E020E060972617B8
:100C90003707D4F6FE01E058FF4F10832F5F3F4F18
:100CA000F5CF80910002909101020196909301028C
:100CB0008093000210929B0210929A021092990265
:100CC0001092980280919A0290919B02019684362C
:100CD000910509F497C090939B0280939A028091AA
:100CE0009A0290919B0266E070E00E941A08892B9C
:100CF000C9F42091980230919902C901885E9D4FF4
:100D0000FC01E059FF4F108270971082709710829B
:100D1000805C9F4FFC0110822F5F3F4F3093990200
:100D200020939802C2E4D3E028E1E22E22E0F22EE2
:100D30007724739430E8C32ED12C10E000E080912A
:100D400098039091990318161906BCF4C601002E59
:100D500002C0959587950A94E2F72889F701E00F7C
:100D6000F11F3081313009F056C0822B888B4889C1
:100D7000672D90E080E00E943A030F5F1F4F08301C
:100D80001105E9F621967394F0E1EF0EF11C89E06C
:100D90007812D3CF03E010E088E1E82E82E0F82E4D
:100DA0009EE0D92EC8E0D0E0F701EC0FFD1F808156
:100DB0008130A1F560E08D2D0E947A0161E0CC2E9A
:100DC000EEE0CE0E8C2D0E947A018BE291E101972C
:100DD000F1F761E08D2D0E947A0160E08C2D0E9478
:100DE0007A012196C031D105F9F6D394F0E1EF0EE6
:100DF000F11C86E1D812D6CF0150110969F60E9484
:100E0000090310CF10929B0210929A02109299023D
:100E10001092980264CF80958223A8CF83EC90E053
:100E20000197F1F7DECF8F929F92AF92BF92CF9250
:100E3000DF92EF92FF92CF93DF93EC01688179818B
:100E40008A819B81611571058105910521F464E218
:100E500079ED8BE597E02DE133EF41E050E00E9422
:100E6000B70749015A019B01AC01A7EAB1E40E940E
:100E7000D6076B017C01ACEEB4EFA50194010E9492
:100E8000E407C60ED71EE81EF91EF7FE06C081E075
:100E9000C81AD108E10880E8F80AC882D982EA8233
:100EA000FB82C701B6019F77DF91CF91FF90EF9052
:100EB000DF90CF90BF90AF909F908F9008958F92CA
:100EC0009F92AF92BF92CF92DF92EF92FF9260918A
:100ED0000202709103028091040290910502611553
:100EE00071058105910521F464E279ED8BE597E0C8
:100EF0002DE133EF41E050E00E94B70749015A016C
:100F00009B01AC01A7EAB1E40E94D6076B017C010A
:100F1000ACEEB4EFA50194010E94E407C60ED71E03
:100F2000E81EF91EF7FE06C081E0C81AD108E108E4
:100F300080E8F80AC0920202D0920302E092040212
:100F4000F0920502C701B6019F77FF90EF90DF9006
:100F5000CF90BF90AF909F908F90089560930202C2
:100F60007093030280930402909305020895052E66
:100F700097FB1EF400940E94CE0757FD07D00E94F5
:100F8000E90707FC03D04EF40C94CE07509540952A
:100F9000309521953F4F4F4F5F4F08959095809525
:100FA000709561957F4F8F4F9F4F08950E940B085A
:100FB000A59F900DB49F900DA49F800D911D1124AD
:100FC0000895B7FF0C94D6070E94D607821B930B97
:100FD0000895A1E21A2EAA1BBB1BFD010DC0AA1F7A
:100FE000BB1FEE1FFF1FA217B307E407F50720F092
:100FF000A21BB30BE40BF50B661F771F881F991F0D
:101000001A9469F760957095809590959B01AC0155
:10101000BD01CF010895A29FB001B39FC001A39F5E
:10102000700D811D1124911DB29F700D811D112421
:10103000911D089597FB072E16F4009407D077FDB5
:1010400009D00E94360807FC05D03EF490958195A2
:101050009F4F0895709561957F4F0895EE0FFF1F84
:10106000881F8BBF0790F691E02D1994AA1BBB1B1C
:1010700051E107C0AA1FBB1FA617B70710F0A61B98
:10108000B70B881F991F5A95A9F780959095BC01B9
:08109000CD010895F894FFCF93
:10109800010001000000000000009C02060233026B
:0810A800E90264024202560253
:00000001FF
